:020000040800F2
:1000000000200020A5750008F5720008F7720008AE
:1000100000000000000000000000000000000000E0
:10002000000000000000000000000000F97200085D
:100030000000000000000000FB720008FD720008D4
:10004000F575000800000000F5750008F57500085A
:10005000F5750008F5750008F5750008F5750008D8
:1000600000000000F5750008F5750008F57500083A
:10007000F5750008F5750008F5750008000000002A
:10008000397300080000000000000000F57500084A
:1000900000000000F5750008F575000849730008B8
:1000A000F5750008F5750008F5750008F575000888
:0800B000697300080000000064
:1000B80010B5064C2378002B07D1054B002B02D036
:1000C800044800E000BF0123237010BD9800002001
:1000D8000000000074B50008044B10B5002B03D0D5
:1000E8000349044800E000BF10BDC04600000000FE
:1000F8009C00002074B5000802B471464908490004
:10010800095C49008E4402BC7047C046002243087F
:100118008B4274D303098B425FD3030A8B4244D3C7
:10012800030B8B4228D3030C8B420DD3FF22090209
:1001380012BA030C8B4202D31212090265D0030BC8
:100148008B4219D300E0090AC30B8B4201D3CB03BE
:10015800C01A5241830B8B4201D38B03C01A524100
:10016800430B8B4201D34B03C01A5241030B8B4202
:1001780001D30B03C01A5241C30A8B4201D3CB02ED
:10018800C01A5241830A8B4201D38B02C01A5241D2
:10019800430A8B4201D34B02C01A5241030A8B42D5
:1001A80001D30B02C01A5241CDD2C3098B4201D3ED
:1001B800CB01C01A524183098B4201D38B01C01A6B
:1001C800524143098B4201D34B01C01A52410309E2
:1001D8008B4201D30B01C01A5241C3088B4201D391
:1001E800CB00C01A524183088B4201D38B00C01A3E
:1001F800524143088B4201D34B00C01A5241411A65
:1002080000D20146524110467047FFE701B5002071
:1002180000F0F0F802BDC0460029F7D076E7704735
:1002280003460B437FD4002243088B4274D303094F
:100238008B425FD3030A8B4244D3030B8B4228D3F0
:10024800030C8B420DD3FF22090212BA030C8B4216
:1002580002D31212090265D0030B8B4219D300E0B6
:10026800090AC30B8B4201D3CB03C01A5241830B3B
:100278008B4201D38B03C01A5241430B8B4201D3EB
:100288004B03C01A5241030B8B4201D30B03C01A14
:100298005241C30A8B4201D3CB02C01A5241830A8E
:1002A8008B4201D38B02C01A5241430A8B4201D3BD
:1002B8004B02C01A5241030A8B4201D30B02C01AE7
:1002C8005241CDD2C3098B4201D3CB01C01A52414E
:1002D80083098B4201D38B01C01A524143098B42D7
:1002E80001D34B01C01A524103098B4201D30B01C0
:1002F800C01A5241C3088B4201D3CB00C01A5241E5
:1003080083088B4201D38B00C01A524143088B42A9
:1003180001D34B00C01A5241411A00D20146524142
:10032800104670475DE0CA0F00D04942031000D361
:100338004042534000229C4603098B422DD3030AB6
:100348008B4212D3FC22890112BA030A8B420CD3C6
:10035800890192118B4208D3890192118B4204D3EF
:1003680089013AD0921100E08909C3098B4201D36F
:10037800CB01C01A524183098B4201D38B01C01AA9
:10038800524143098B4201D34B01C01A5241030920
:100398008B4201D30B01C01A5241C3088B4201D3CF
:1003A800CB00C01A524183088B4201D38B00C01A7C
:1003B8005241D9D243088B4201D34B00C01A524153
:1003C800411A00D20146634652415B10104601D3E0
:1003D8004042002B00D54942704763465B1000D36A
:1003E800404201B5002000F005F802BD0029F8D010
:1003F80016E770477047C0468446100062468C4630
:100408001900634600E0C0461FB501F0CDFD002885
:1004180001D40021C8421FBD10B501F00FFD4042B4
:10042800013010BD10B501F0BFFD002801DB002030
:1004380010BD012010BDC04610B501F0B5FD002863
:1004480001DD002010BD012010BDC04610B501F02F
:100458003BFD002801DC002010BD012010BDC04676
:1004680010B501F031FD002801DA002010BD01208F
:1004780010BDC0469E2110B5C905041C02F0B2FE8D
:10048800002803D1201C00F0EBFC10BD9E21201C8D
:10049800C90500F0A3FA00F0E3FC80231B069C4684
:1004A8006044F2E770B500220C4B04000D00FFF722
:1004B800D7FF002804D12000290002F005FD70BDF7
:1004C800064B00222000290002F0A4F802F0FCFCF0
:1004D80080231B069C466044F1E7C0460000E041CB
:1004E80070B50600080002F059FD0022064B01F025
:1004F800C9FD0D000400300002F050FD2B00220061
:1005080000F064FD70BDC0460000F041F0B54646FD
:100518004F46D6464502C0B5C30F470098460E1C45
:100528006D0A3F0E5BD0FF2F21D08023ED00DB0446
:100538001D43002399469A467F3F74027300640A5C
:100548001B0EF60F002B20D0FF2B43D0802200205B
:10055800E400D20414437F3B4246FF1A4B467240E4
:100568000F2B00D99DE071499B00CB589F46002D69
:100578005AD108239946063B74029A467300FF270E
:10058800640A1B0EF60F002BDED1002C3BD1012391
:1005980042464946724019430E2918D864488900D2
:1005A80041588F465346022B00D1B8E0032B6ED03A
:1005B80042462C00012B40D100200024C0052043D6
:1005C800D2071043E0BCBA46B146A846F0BDFF20AA
:1005D8000024F3E7002C20D10223FF3FD8E7002DA9
:1005E80005D104239946033B00279A46A5E728002E
:1005F80002F002FE7627431F9D4000237F42994662
:100608009A463F1A99E7200002F0F6FD431F9C40E6
:1006180076235B421B1A00209EE703234A461A43AF
:1006280091460320FC3397E70C239946093BFF27A3
:100638009A4682E703282CD0320038007F30002801
:1006480047DD630704D00F232340042B00D0043474
:10065800230103D53800374B80301C40FE28B6DC18
:10066800A401640AC0B2A9E780240022FF20E403A1
:10067800A4E78023DB031D4201D01C420BD0802459
:10068800E4032C4364024246FF20640A96E7464688
:100698002C008023DB031C4364023200FF20640A21
:1006A8008CE76D01600185422DD21B230024013F98
:1006B8000126290064006D00002901DB854201D371
:1006C8002D1A3443013B002BF3D16B1E9D412C4363
:1006D800B3E701231B1A1B2B00DD6DE721009E37B2
:1006E800D940BC400B00611E8C412343590704D0FC
:1006F8000F211940042900D00433590113D49B0158
:1007080000205C0A5AE71A2301242D1AD0E7981E04
:1007180043425841404232000024C0B24EE74246AC
:10072800FF2000244AE70120002447E7A0B500087D
:10073800E0B50008FFFFFFF7F0B54F464646D6463E
:100748004502C0B546000F1C6D0A360EC40F002EB8
:1007580000D1CDE0FF2E72D08023ED00DB041D43D5
:10076800002399469A467F3E7B025B0A98467B00A7
:100778001B0EFF0F002B72D0FF2B00D1A9E07F3B8F
:10078800F6184B460A2B00DD85E043468022DB0045
:10079800D2041A434B4690467C400022022B0FDDC0
:1007A800494601238B40A621C9000B4200D072E0C4
:1007B800902189000B4200D0DAE08821194267D1E4
:1007C800280C42462D042D0C4346290012041B0C0C
:1007D800120C51435D4342435843AD180B0C5B194F
:1007E8009A4203D9802252029446604409041A04AA
:1007F800090C52189501691E8D411B0C920E1B188D
:1008080015439B011D431B0100D5CFE030007F300D
:10081800002800DCB1E06B070BD00F2332002B401F
:10082800042B06D004352B0103D5803210006A4B07
:100838001D40FE2864DCAB015B0AC0B21FE0002D3E
:1008480000D08FE008239946063B9A467B025B0A54
:1008580098467B00FF261B0EFF0F002B8CD14346CA
:10086800002B5CD14A4601331A43914613000A2AE9
:1008780011DC01227C40022B92DC00200023C00501
:100888001843E4072043E0BCBA46B146A846F0BD89
:100898003C00454692465346022B31D0032B11D0DB
:1008A800012BEAD030008030721C002866DD6B070F
:1008B800B9D00F232B40042BB4D1B4E70F2A7AD038
:1008C8003C0045468023DB032B435B02FF205B0A89
:1008D800D5E74346FF36002B34D14A46023313434B
:1008E8000A2BD8DC7C40002A0AD09946022257E716
:1008F800002D08D104239946033B00269A4633E786
:10090800FF200023BBE7280002F076FC7626431F71
:100918009D400023764299469A46361A24E7404677
:1009280002F06AFC4B46361A763E0A2BB3DC434685
:100938000538834098464B4600227C40022B00DD58
:100948002EE73DE703234A461A4313000A2AB5DC7B
:1009580001229A40882113007C400322194200D1C9
:100968002EE795E70C239946093BFF269A46FBE6B6
:1009780080230024FF20DB0381E7320001231B1AB8
:100988001B2B00DD79E79E3229009540D9406A1E6D
:1009980095410D436B0704D00F232B40042B00D047
:1009A80004356B0113D50120002368E701236A0889
:1009B8001D40154376E78023DB031D4282D0424663
:1009C8001A4200D07EE73C00FF20134357E7AB01F3
:1009D80000205B0A53E7C046FFFFFFF7F8B547461C
:1009E800CE464B02460080B5C40F4702580A8446DB
:1009F80048007A0A360EBF09000ECD0F9B09FF2862
:100A08006DD001214D40311AAC423AD0002900DCAA
:100A18009CE1002800D19EE0FF2E00D188E08022D2
:100A2800D20413431B2900DCF6E0013F7A0100D40D
:100A380079E001277F42BF01BB099846404602F092
:100A4800DBFB434605388340864200DCCCE0B44FEC
:100A5800311A1F405A0768D00F221340042B64D064
:100A680004377B0161D5481CFE2900D081E0FF20B6
:100A78000023C0051843E4072043C0BCB946B0466C
:100A8800F8BD002900DC79E1002876D1002B4CD094
:100A9800481E012900D147E1FF2949D01B2871DCF4
:100AA80001001A002020CA40411A8B40591E8B4170
:100AB8001343FF188023DB041F4200D1B8E0711CE8
:100AC800FE2ED4D0012297483A407F0807401743AA
:100AD8007A0700D096E01F42C5D1FA0855E03100E8
:100AE800FF398946002B2CD101214D40AC4200D161
:100AF800B4E0494600294CD0002E00D0F9E0FF218F
:100B0800002F00D108E14A1E012900D156E1FF2932
:100B180000D142E11B2A00DC24E15F1E2C00060004
:100B28007A0100D585E731000437FA08FF292CD16E
:100B3800002A9CD08023DB0313435B02FF205B0A5F
:100B480097E7AC4200D1A7E0002922D0002ED6D0EA
:100B580062462C00EEE7002BE7D0481E012936D06C
:100B6800FF29E5D001005DE701203B007A0100D4B0
:100B780057E1C0B2BB015B0A7BE7FF2ED8D01B2927
:100B880000DC9FE031000537FA0853025B0AC8B25F
:100B98006FE7FE20711C084254D1002E00D0B1E04E
:100BA800002F00D102E1002B00D1F9E08021FA1AD0
:100BB800C9040A4200D13BE10124DF1B2C40002F6D
:100BC80049D001200F42D5D10021FA08DDE7FF1AEC
:100BD8007B0100D4DEE0BD01AD09280002F00CFB6A
:100BE8002B000538834001262022811B0131521A2F
:100BF8001F009340CF405A1E93411F432BD0002122
:100C08007B07B1D00F233B40042B00D028E77B01A2
:100C180000D528E7FA08B8E71A002020CA40411A88
:100C28008B40591E8B411343FF1A7B0100D502E705
:100C38007B0700D10DE10F2331003B40042B00D08E
:100C48000EE772E7FA1A9046520156D44346002B33
:100C580000D0F3E60024002000230AE749460029D3
:100C68001CD0002E00D002E7FF21002F55D04A1ECD
:100C7800012959D0FF2900D190E01B2A00DD91E01D
:100C880011003A002025CA40691A8F40791E8F4109
:100C980017430600FF180DE7002926D1FE20711C16
:100CA800084213D1002E00D096E0002F00D1B4E006
:100CB800002B75D0FB185A0100D4B2E09B015B0AE7
:100CC800FD38D6E68022D2041343EAE6FF2900D194
:100CD800CDE6FA185208530705D00F23171D134005
:100CE800042B00D021E7D2084FE7002EBCD0624683
:100CF80020E72C00FF200023BBE60124DB1B9846DD
:100D08002C409BE6002F75D1002B00D096E0802365
:100D18000024FF20DB03ACE62C001F0005E7C046DB
:100D2800FFFFFFFBFFFFFF7DFB185A0100D48DE09A
:100D38004A4A5B081A40590700D18CE00F210B4042
:100D48000D39042BCFD00221171DEEE6002900D162
:100D58001FE7821B1100002E00D1D1E68021C904B3
:100D68000F43D7E639002024D140A21A97407A1EB3
:100D780097410F432C000600DF1B56E700298DD052
:100D8800811B002E00D170E71B290BDC8022D204C6
:100D9800174376E70121FA08F7E62C006246C7E612
:100DA8000021F2E605330100DA08EEE6002B00D157
:100DB80050E70124002162462C40E6E6DA1B530185
:100DC80032D592019409200002F016FA2300053862
:100DD80083402C00012607E7002FDFD0002B17D017
:100DE8008023DB039A4200D2A4E69C4500D3A1E607
:100DF80062469FE6002B0BD08023DB039A4200D289
:100E080098E69C4500D395E6012462462C4091E67D
:100E18008023DB03FF2013432BE60020002B00D1A7
:100E280027E60021DA08B0E62C000121D208ACE65A
:100E3800002A00D10EE70021D208A6E680236246E8
:100E48000124DB03FF2013432C4012E60121DA08BA
:100E58009BE6310069E60221D20896E6FFFFFF7D96
:100E680041024200C30F490A0020120E7E2A03DD08
:100E78009D2A02DD094A9818704780200004014322
:100E8800952A07DC9620821AD1404842002BF3D1DC
:100E98000800F1E7963A9140F7E7C046FFFFFF7F69
:100EA80070B5002812D0C317C5185D40C40F2800BC
:100EB80002F0A2F99E231B1A962B0FDC082838D0C3
:100EC800083885406D026D0AD8B202E0002400207F
:100ED8000025C0052843E407204370BD992B14DC86
:100EE800421F95402A001549114055071CD00F256F
:100EF8002A40042A18D00431CA08490115D59F236D
:100F08005202181A550AC0B2E3E7020029001B3240
:100F180091404A1E91410522121AD5402A000A43DF
:100F2800064911405507E2D1CA085202550AD8B2FB
:100F3800CFE76D026D0A8E30CBE7C046FFFFFFFB9F
:100F480010B5041E0DD002F057F99E231B1A962BDC
:100F58000CDC082834D0083884406402640AD8B20B
:100F680001E000200024C005204310BD992B13DCAC
:100F7800421F9440144A224061071CD00F2121408F
:100F8800042918D00432D408520115D59F236402CD
:100F9800181A640AC0B2E6E7020021001B32914029
:100FA8000A00511E8A410521091ACC401443064AF9
:100FB80022406107E2D1D4086402640AD8B2D2E7B9
:100FC8006402640A8E30CEE7FFFFFFFBF0B54F46A0
:100FD8004646D646C0B50D0382B0009201934E0036
:100FE800C300CC0F690A450F9C46009A019B0D432C
:100FF8005F001903D80F009B490A5B0F1943009B38
:10100800760D7F0DDA00F31B844258D0002B13DDD8
:10101800002F00D088E00800104300D159E1581E85
:10102800012B00D1C2E2B14FBB4200D141E13828C7
:1010380000DD6AE2030064E1002B00D1B1E0BB1BD4
:10104800002E00D0E1E164462C4300D176E25C1E1C
:10105800012B00D1E8E2A54EB34200D1B7E2382C0B
:1010680000DC6BE3541EA242924152428D1AA04604
:101078001E0004002A0268D443461F1D47459B41B1
:101088005B42ED182B0200D49DE3984A0136964244
:1010980000D1EBE0964A73052A405B0D5107FF0823
:1010A80052020F43120B1B051343E4072343380076
:1010B800190002B0E0BCBA46B146A846F0BD002B04
:1010C80000DCD7E0002F00D09AE00800104300D1E0
:1010D800FFE0581E012B00D148E2844FBB4200D1EB
:1010E800E7E0382800DCB8E280221204154200D17B
:1010F80049E31E000023150098467C4B01369E42AA
:1011080000D1B3E07A4B01211D4043465A081940EB
:10111800EF070A4317436D087B07B3D00F233B4003
:10112800042BAFD0B846A7E77048864200D1C0E08C
:10113800382B00DCE2E001235B4263449C4580419C
:1011480040422D1A98462B0296D501235B429846B9
:10115800684D280002F050F80300083B2021404663
:10116800CA1AD040020040469D4098402A43804613
:10117800B34200DA72E1981B43460130091A45462A
:101188008B40C5405E1EB34117008F402B431F4361
:10119800C2403B00150000261343BDD100270022A2
:1011A80081E7554F731C3B4200D01BE163460F009B
:1011B8002B431743002E00D0C4E1002B00D145E299
:1011C800002F00D107E163469B1A9846C445B641F3
:1011D8006B1A76429B1B80263604334200D1CBE241
:1011E8006346D31A9A4292411F00491B52428A1AF7
:1011F8009C46174300D0EDE204000023002252E78A
:101208003A48864255D0382B00DD48E1802000045A
:1012180001431F2B00DDE3E12027F81A824608006E
:101228005746B840814610004F46D840074338001B
:101238005746BA40D940571EBA416D18104360440A
:101248008046E045804140422D182B0200D554E7E6
:1012580043465B0700D1B9E20F2342461340042BF3
:1012680000D009E733004246D20834E033000022B8
:10127800002718E7002B00D18FE0BB1B002E00D001
:1012880033E16046284300D140E2581E012B00D1CB
:101298000AE2164EB34200D185E2382800DC87E224
:1012A80080252D04294200D19CE21E000023984687
:1012B80023E763466E07D8080643ED0837002F4337
:1012C80011D0802212032A4312033700074B120B56
:1012D800E9E66246D2086E071643044AED089342CF
:1012E800ECD03700D6E0014B0022DCE6FF07000017
:1012F800FFFF7FFFFFFF7F00FE0700008020000444
:1013080001431F2B00DDB1E02027F81A82460800B0
:101318005746B840814610004F46D840074338002A
:101328005746BA40D940571EBA416D1A1043634612
:101338001B1A9C458041984640422D1A2B0287D59E
:101348006D026D0A002D00D003E7404601F054FFFE
:10135800030018331F2B00DC00E7424608388240A0
:101368009E4200DD91E09B1B581C1F2800DCF8E121
:1013780017001F3BDF40202805D040231B1A9A4046
:10138800531E9A411743002F3CD000267B0700D0FC
:10139800C4E63500B846330065E7CB48731C034202
:1013A80000D085E063462B43002E00D092E10F0069
:1013B8001743002B00D1D8E1002F0CD062446245BE
:1013C80080416D1840422D182B0200D5F2E117001C
:1013D80094462F4316D063466F07D8080743002367
:1013E800ED0857E063469B1A9846C445BF416B1AFF
:1013F8007F42DB1B1F0200D5AEE047461D001F439E
:10140800A0D10024002300224DE6B04CA74200D111
:10141800DDE0382B00DD85E08024240425431F2BE4
:1014280000DDECE02026F41AA1462C004E46B4401C
:101438006646DE403443A04666464C46A640DD403C
:10144800741EA6414446491B3443131B9A429241D9
:101458005242984604003E008D1A6FE7F61A0300C0
:101468009B4D15405B0700D0F6E6FBE618000F0021
:101478002038C740202B03D04020C31A99400A4384
:10148800531E9A411000384351E79149F31A0A4014
:101498005707D5082A035B05120B5B0D03E680236B
:1014A8001B041D4200D1BBE01D000023984624E622
:1014B8008648834200D1DAE6624462458041691871
:1014C80040420918C8075208104380464D08520781
:1014D80005D00F221E000240042A00D0CCE5424667
:1014E8006F07D20817430D09D4E77848874200D11F
:1014F800D5E0382B00DCB2E080252D04294200D14C
:101508004CE100233E009846F7E50122524262442E
:101518009445804140422D1A90461E002A0200D56B
:1015280013E6A9E5531E9A42924152428D1A9846F3
:1015380004003E002B0200D507E69DE504000D00DF
:10154800D208C8E6002B00D0E3E0002F3FD180226C
:1015580000245E4B1203A6E56346D31A9A429241D1
:101568004D1B524298460400AD1AEBE66244160041
:10157800664580416A1840421218130200D49DE063
:10158800534973080A40D107194357085B0700D12C
:10159800FEE00F230B40042B00D1F9E00B1D984609
:1015A8008845AD416D420223ED195CE663469B1AFE
:1015B8009C4580416D1A40422D1A98462B020DD445
:1015C80043466F07DB081F43ED08012362E74E0718
:1015D800D20804001643CD0870E604000126AFE6E1
:1015E80018000F002038C740202B03D04020C31A12
:1015F80099400A43531E9A41100038431FE61C00C5
:101608002E00203CE640202B05D04024E31A9D40C4
:1016180063462B439C466446631E9C41344314E74F
:1016280001236344984627E56346D31A9A429241B8
:101638004D1B5242AD1A98462B02CED443466F0733
:10164800DB081F4304000123ED0823E7002F00D126
:10165800D7E604000D009446BDE60300D9E58020D6
:10166800000405431F2B6BDC2020C01A804628008D
:101678004646B0406646DE400643B14660464646AA
:10168800B040DD40461EB0414E46491930438046C1
:1016980090449045924152423E005518D5E54E0778
:1016A800D2081643CD0809E663469E189642924131
:1016B800691852428A18130200D561E75707F608DD
:1016C80001233743D508E5E6FE070000FF070000C1
:1016D800FFFF7FFF002BE2D06346DE086B071E4347
:1016E8000B00ED08134300D1E8E580231B031D42DE
:1016F80006D0C808184203D10500D60849070E438A
:10170800730FF600F6085B071E43D7E50D00D208F5
:10171800E1E56346DE086B071E43ED08002F00D1A4
:10172800CCE580231B031D42EAD0CF081F42E7D136
:10173800D608490704003D000E43E1E723006EE6A2
:1017480018002E002038C640202B05D04020C31A90
:101758009D4063462B439C466046431E9841304358
:1017680095E720210023091A0EE50023002F00D158
:10177800BAE50D00904676E547461F4300D140E69E
:101788001D00C44627E60122624490461E0073E409
:10179800C9087F0702230F4315097BE6531C9846A7
:1017A8000D003E0068E4D6084B071E43CD0885E5CA
:1017B800030057E7114BD2082B405F0717435A0223
:1017C800120B01236FE43300B8464CE54346DA08B0
:1017D800330080E532420AD0084B04001A406746BD
:1017E80001235BE4013290460D001E0044E4DB084F
:1017F80057071F4304000023D5084BE6FFFF7FFF70
:10180800F0B5DE46454657464E46E0B587B00092ED
:1018180001930B031B0B9B46CA0F4B000400804629
:101828005B0D029200D1BFE08F4A934238D05946EF
:10183800420FC9000A43802109041143C20090469F
:101848008A4A894692469A44002300240393009EBC
:10185800019F3B031B0B7A0030009B46520DFD0F86
:10186800002A00D17FE0804B9A426ED05946730F10
:10187800C9000B438021090419438B467B49F300B7
:101888008C46514662448A1A92460021029E6E4056
:10189800F6B20F2C00D9F9E0754AA4001259974600
:1018A8005A460243914600D0B6E09A460223904633
:1018B80008240393CBE72E0000210023002288464A
:1018C8001B051343F60733434046190007B0F0BC25
:1018D800BB46B246A946A046F0BDCB464346029D4C
:1018E8000399022900D1FAE1032900D1A1E00129D5
:1018F800E1D0604A524490464446002C00DC00E2A5
:101908005A0704D00F221A40042A00D07FE22E0082
:10191800DA085B46DB0106D55946574B8024194047
:101928008B46E4005444554B9C4209DC5B465B07FC
:10193800134398465B4664055A02120B630DBFE7D2
:10194800002100228846484BBAE75B46009A1343B9
:101958004B4A9446E244002B59D1022214430022F8
:101968000221934692E75B46009A134349D05B46AF
:10197800002B00D1A4E1584601F03EFC0300020010
:101988000B3B1D27009EFB1A11005846DE40083904
:101998008840330003439B46009B8B40394952449F
:1019A8008A460021924471E75B460343994621D059
:1019B8005B46002B00D171E1584601F01DFC0B235A
:1019C8005B429C460200844466461D239B1B2600FE
:1019D80011005846DE4008398840330003439946D1
:1019E80023008B409846284B00249B1A9A460023D4
:1019F80003932CE7002398469A4601330424039363
:101A080025E7012214430022012193463EE70323E0
:101A180003211C43330039E79A460323D9460C2493
:101A2800039314E700238022984600260E4B1203E6
:101A380046E78022594612030A43120398462E00AD
:101A4800094B120B3CE7802249461203114202D08F
:101A580059461142F0D080224B4612031A43120312
:101A6800029E014B120B2BE7FF07000001FCFFFF52
:101A78001CB60008FF030000FFFFFFFEFE07000082
:101A880001F8FFFFF30300000DFCFFFFCB4500D278
:101A9800FAE000D1F5E00122524294460022444681
:101AA80048469046E2445A461F0E12021B02029311
:101AB800130C994617433B041B0C49460093FEF749
:101AC800ABFB009A0B044243210C050019438A42E0
:101AD80007D9C919013D8F4203D88A4201D9851E09
:101AE800C919881A4946FEF797FB009A240442430D
:101AF8000904240C03000C43A24204D9E419013B55
:101B0800A74200D8F7E00299A01A2D040C0C09048A
:101B18001D43090C2A0C2B04AB460D001B0C5D431E
:101B2800059163435143049462435B182C0CE318FA
:101B3800994203D9802149028C466244190C2D042C
:101B48001B042D0C8A185D19904200D287E000D141
:101B580082E043465D1BA8459B41801A5B42C01A40
:101B6800B14B534498461C00874200D10CE14946CA
:101B7800FEF752FB0200009B03905A430B04290C0A
:101B880019438A420AD90300C919013B03938F42BA
:101B980004D88A4202D9831E0393C919881A494670
:101BA800FEF73AFB0A00120494462A046546009997
:101BB800120C414303002A43914207D9D219013834
:101BC800974203D8914201D9981ED219039B521A01
:101BD8001B0403430598190C05008C461904090CCD
:101BE8004D438946614600956546484304994D43EF
:101BF800AC464D464D432918009D2D0CA946494435
:101C0800884203D9802040028146CC44009D080CBC
:101C18002D0409042D0C60444D1982420FD30BD0BA
:101C280001221343814A92456CDB1A1D9A429B415B
:101C38005B42D2089B446CE6002D00D193E0591E0C
:101C4800BA188C46BA4200D285E0824200D2C7E078
:101C580000D1D5E00B00E3E7A84500D379E75B4660
:101C6800591E029B9C46E0441C0098459B415B42E0
:101C7800DB19C018874238D2824278D875D08B4693
:101C880067E7434500D906E74A46D4075008424665
:101C9800520814434246D207904604E701F0ACFAD2
:101CA80015239C4684440200634620321C2B00DC2A
:101CB8008AE623000838834099460023984692E62E
:101CC80001F09AFA03000200153320321C2B00DCC5
:101CD80057E600990838814000238B465EE60021CC
:101CE8002E0000228846524BEAE58742C7D1444578
:101CF800C2D98B462DE7A24200D804E7831EE41917
:101D080001E72E0001224146521A382A00DDD3E5A8
:101D18001F2A3FDC47481C005044594683408140F5
:101D2800D440581E834121430B435946D1400A00F1
:101D3800590709D00F211940042905D0191D9942C6
:101D48009B415B42D2180B00110268D50021012388
:101D580000228846B4E50B00824200D060E7029A70
:101D6800954200D05CE73500C6E5454587D9022392
:101D78005B429C46029BE3449C46E04498459B4159
:101D88005B42DB19C018E4E6002B36DD0123002294
:101D98009B44BEE51F2140464942091A5846C8409F
:101DA8000100202A04D05846234A52449040034355
:101DB8005A1E934107200B43010000221940184284
:101DC80009D00F21194004291FD0181D98428941B4
:101DD800030049424907DB080B43984600236FE597
:101DE8000299023B49008C4602998C458941494237
:101DF800C919521861460291AEE701235B4281E797
:101E08000299A942ECD36346A9E70021E3E71A1D2A
:101E18009A429B415B422E00D2089B4479E55107C8
:101E28005202120BD7E7C046FF03000002FCFFFF77
:101E3800FF0700001E0400003E040000F0B55746EE
:101E4800DE464E464546E0B50D000400E80F8346E1
:101E58000903D80F090B82461A488C461F036900EC
:101E68005E00490D3F0B760D81421AD0864211D093
:101E78000120B1420FD1BC450DD1A2420BD1D345AF
:101E88001ED0002907D1614611430A00531E9A410A
:101E9800100000E00120F0BCBB46B246A946A046AF
:101EA800F0BD01208E42F6D1614639430F00174339
:101EB8002743F0D15B465246981A431E9841EAE7F9
:101EC8000020E8E7FF070000F0B557464E464546B4
:101ED800DE46E0B50D000E034900490D8A46DF0FC6
:101EE800E90FBC4683B02F4F04008046019158008B
:101EF80019039146360B090B400DBA451DD0B8425F
:101F08000DD05746002F2AD13443002824D10A4344
:101F180036D0002C41D163465800013815E01143F2
:101F280038D15346002B01D12643F4D0019B634599
:101F380007D1019B5800013807E026432AD15045B4
:101F480021D00120019B5F42384303B0F0BCBB465F
:101F5800B246A946A046F0BD002CDCD0E6E7002832
:101F6800EFD0019B6345ECD18245EADCE1DB8E4290
:101F7800E7D8DED1C845E4D80020C845E5D2D8E77F
:101F8800002CE2D0DDE7114304D1019B6345D8D191
:101F98000020DAE702204042D7E7019B6345E6D0FC
:101FA800CFE7C046FF070000F0B557464E46454606
:101FB800DE46E0B50D000E034900490D8A46DF0FE5
:101FC800E90FBC4683B02E4F0400804601915800AB
:101FD80019039146360B090B400DBA451ED0B8427D
:101FE8000DD05746002F27D13443002833D10A4358
:101FF80034D0002C40D163465800013815E0114315
:1020080012D15346002B01D12643F4D0019B6345DE
:102018001DD00120019B5F42384306E0264303D1CF
:102028005045F6D111431CD0022003B0F0BCBB468A
:10203800B246A946A046F0BD0028EAD0019B6345F8
:10204800E7D18245E5DC02DB8E42E2D80ED0019B67
:1020580058000138E9E7002CCDD0D7E7002CE4D0B0
:10206800D7E7019B00206345DFD0D2E7C845D0D829
:102078000020C845D9D2EAE7019B6345E4D0C8E708
:10208800FF070000F0B557464E464546DE46E0B528
:102098001F000B031B0B16009846CA0F4B000400C9
:1020A800924685B05B0D00D1C2E1CC4A934200D183
:1020B80028E14146420FC9000A438021090411431F
:1020C800C2009146C64A884693469B440023002591
:1020D80001933C037A00FB0F3000240B520D009350
:1020E80000D185E1BD4B9A4200D160E1BC4B9C46D2
:1020F800624493440A2D00DD14E1730FE4001C438D
:1021080080231B042343F0005246009900264A40CE
:102118009246022D11DD0122AA40A6211400C90011
:102128000C400A4200D0FDE0902189000A4200D00C
:10213800D4E18821114200D0EFE049464A4609041B
:10214800140C090C020C0F0015000004000C654368
:1021580047430195B9462F000D0006005543AC468C
:102168004D4666432D0CB4446544AE4205D93E0045
:1021780080277F02BC46664401964F463F043F0CC9
:102188002E0C2D04ED1902951D0C1B041B0C00953B
:102198001D001F0065434F43AC46009D69436C43D7
:1021A8003D0CA946614449448C4503D980256D02FC
:1021B800AC4664443F040D0C3F0C0904C919AC46F5
:1021C8007518039545462E04360C2F0C35004543EB
:1021D8007843804638006444AC462D0CA9465043E9
:1021E800724342444A44904503D980256D02A8466B
:1021F8004044150CA84665462D042D0CAC46350008
:102208005D4312046244AC467B43009D40449846BB
:102218002B006E4365467B4346442D0CAD191F00C9
:102228000093A84504D980235B0298464744009749
:10223800039B019E98462B044644984663468E426B
:1022480089411B041B0C4344B61849421B195F18EB
:1022580096429241BC465242804691468C458941FD
:10226800A3429B41E044C14449425B4291459241AB
:102278000B43804589412D0C494252420A435B1960
:102288009B18009A029994464A4663445B02D20D11
:102298001A43904672020A43511E8A41F60D1643AC
:1022A8004A4652021643B146DB0154D44D4A5A44B9
:1022B800002A00DC18E133005B0715D00F215B46CC
:1022C8003140042910D04946081D484589418146B6
:1022D800494288444146C90106D54146424A11400F
:1022E80080228846D2009A18404B9A4200DD2BE1A2
:1022F80041464B464C07DB081C4352054B021B0B5F
:10230800520D1AE042460243914600D0E0E09B4657
:102318000223904608250193DBE6009A98469246E8
:1023280081460196019B022B00D10DE1032B35D08C
:10233800012B1BD100220023002412051A43534607
:10234800DB071A432000110005B0F0BCBB46B246BB
:10235800A946A046F0BD0122730832401343424605
:10236800D2071343994643465B08984680225B464A
:10237800D2005A440133002A00DCB6E04946490736
:10238800A8D00F214846014004299CD1A2E70F2D6F
:1023980000D1FDE0009BA0469A46B1468023424604
:1023A8001B0313431B034C460C4A1B0BC5E70B4985
:1023B80033008C462343E344002B77D10221294381
:1023C8000A29AFDC5046009C60408246002D00D1AF
:1023D8000EE10D00002002269DE6C046FF07000022
:1023E80001FCFFFFFF030000FFFFFFFEFE070000E8
:1023F800230033434BD0002C00D1BBE0200000F079
:10240800FBFE030002000B3B1D20C31A3000D8401E
:1024180011000300300008398C4088402343594696
:102428008A1A78498B4693440A2D00DC6CE679E7D2
:1024380043460343994623D04346002B00D187E007
:10244800404600F0D9FE0B235B429C4602008444C0
:1024580011004046083988401D23804660461B1AF3
:102468002000D840030040460343984623008B4091
:102478009946644B00259B1A9B460023019328E646
:10248800002398469B4601330425019321E6012247
:1024980015430A2D00DD45E7524600994A40924609
:1024A800022D00DC46E70020012634E603231D4305
:1024B8000A2D00DD6BE75346009A8821534001221C
:1024C800AA409A4603262300114200D135E624E7A4
:1024D8009B46032381460C250193FAE500239A467F
:1024E8008023494A1B0328E75B460121891A3829BA
:1024F80000DD1FE71F295ADD1F204042821A40468F
:10250800D040202908D0414A9446424663449A4024
:1025180013004A461A4391464A460721531E9A41D8
:102528000C00024300231440114209D00831114025
:10253800042960D0111D9142A4410A006442640735
:10254800D20814430022F8E6002300242E4AF4E6B9
:1025580000F052FE15239C46844402006346203254
:102568001C2B00DC74E700239946230008388340BD
:1025780098467EE700F040FE030002001533203243
:102588001C2B00DC40E7330008388340002046E776
:10259800802342461B031A4200D1FFE61C4200D0AA
:1025A800FCE6009A234392463400174AC5E6184AC7
:1025B800404694464A4663449840CA4010434A46B7
:1025C8009A40531E9A4143460243CB40510709D0D3
:1025D8000F211140042905D0111D91429241524208
:1025E8009B180A00190208D5012200230024A4E63A
:1025F80000230024A1E60024A2E75C075B021B0B72
:102608009EE7C0460DFCFFFFFF0700003E040000E8
:102618001E040000F0B54E464546DE465746E0B576
:1026280083B0009001910D034E000199760DCC0FF7
:10263800690A009D6D0F0D43009900920193C8002F
:102648001903019BCB4A5B005B0D9946019B8346AE
:10265800DB0F98464B0A0099490F1943009BDB0092
:102668009C469A46914500D173E0012347465F4056
:102678004B46B846F31ABC4216D0002B00DC9AE24F
:102688004F46002F00D082E067460F4300D13AE161
:102698005F1E012B00D1A4E2934200D12EE1382F16
:1026A80000DD43E23B003EE1002B00DCD7E24F4671
:1026B800002F00D0F8E067460F4300D123E15F1EEA
:1026C800012B00D157E2934200D117E1382F00DCEB
:1026D80004E380221204154200D1AAE31E0015006B
:1026E8000027A44B01369E4200D103E10122A24BF0
:1026F8003A401D4079081143EA070A436D08530719
:1027080009D00F231340042B05D017003A1DBA42F5
:10271800BF417F42ED192B0200D477E3954901367A
:102728008E4200D1E6E0944973050D405B0D6907C0
:10273800D2086D020A432D0B1B052B43E4072343E4
:102748001000190003B0F0BCBB46B246A946A0462B
:10275800F0BD8A4BF21863460B434CD0444550D029
:10276800002A6CD0002E00D17DE1634644464F0715
:10277800DA081743C8083A00024300D1CDE08025A3
:102788002D0305432D033A007A4B2D0BD4E79642CF
:1027980000D1B3E0382B00DCC2E0471EB8428041CC
:1027A80040422D1A2B02B1D50127754D7F422800D2
:1027B80000F022FD0838202339001A1A8540D1403C
:1027C80087402943B04200DA45E1801B01301B1ADB
:1027D8003D009F40C5407A1E97410A009A402F430A
:1027E8003A43C14013000D0000260B4300D086E792
:1027F80000220025A0E7474601235F40B84644452C
:10280800AED1002A00D1EFE0002E00D088E14B467F
:102818002A00024300D1A0E25A1E012B00D1B7E2E0
:10282800544EB34200D17BE1382A00DC12E3802504
:102838002D04294200D112E31E00002751E7514A16
:10284800731C134200D0F4E062462B000A43034392
:10285800002E00D074E1002B00D123E2002A00D121
:10286800E0E06346C71AB842924180266B1A52428A
:102878009B1A3604334200D1C1E26346181A8445D4
:1028880092414D1B5242AD1A0124020043462A438D
:102898001C40002A00D1DBE0354200D1E9E2364B8A
:1028A80002001D40012342E7964227D0382B00DD65
:1028B80011E18022120411431F2B00DDA1E1202227
:1028C8000F00D21A914697406246DA401743B8463D
:1028D80062464F46BA40D940571EBA4147466D181E
:1028E80017433F188742804140422D182B0200D5DC
:1028F800F7E634E03300002500221DE7C0086F0723
:102908000743E80837E7C7086A071743194AE8087A
:10291800934200D12FE73A00D8E0164B00250BE789
:102928008022120411431F2B00DDB7E020220F0084
:10293800D21A914697406246DA401743B846624633
:102948004F46BA40D940571EBA4147466D1A1743F9
:10295800C71BB842804140422D1A2B0216D47B0770
:1029680000D179E20F233B40042B00D0CEE63300A0
:10297800FF08C9E7FF070000FFFF7FFF01F8FFFF1F
:10298800FFFF7F00FE070000444601266D026D0A26
:10299800002D00D00BE7380000F02EFC03001830A3
:1029A8001F2800DC07E73900083B9940864200DD14
:1029B80087E0831B581C1F2800DC14E20A001F3B19
:1029C800DA40202805D040231B1A99404B1E994114
:1029D8000A43002A3CD00026530700D091E617008E
:1029E80035003300FF088FE7CA4A731C13427AD1B7
:1029F8002B000343002E00D092E162460A43002BCD
:102A080000D1F4E1002A0DD06346C71887428041FF
:102A18006D1840422D182B0200D512E23A00BB4631
:102A28002A4315D05B466A07DF083A430023E808C3
:102A38004CE06346C71AB84292416B1A52429B1A3D
:102A48001A0200D587E03A001D001A43A0D10024DD
:102A58000023002570E6B04D361A0D407B0700D0E4
:102A680080E7330084E74B462A0002437ED05A1E93
:102A7800012B00D11FE1A94CA34200D198E1382ACB
:102A880000DC9CE16246571EBC45924152428D1AB9
:102A980044461E002A0200D586E637E61A000F00D3
:102AA800203AD740B846202B05D04022D31A994067
:102AB80063460B439A4657467B1E9F4143461F4336
:102AC80046E7954A331A11404A07C80805035B05CB
:102AD8002D0B5B0D30E680231B041D4200D1FBE06B
:102AE8001D000027FDE58D4A934200D103E76246A9
:102AF800821882428041691840420818C707520864
:102B080017434508520700D4AEE10F221E003A4091
:102B1800042A00D0FAE5FF086A073A430009D5E716
:102B280063464F07DA081743C80824E6471EB84229
:102B3800804140422D1A1E002A0200D534E6E5E500
:102B4800002B00D00DE1002A00D069E18025002487
:102B5800724B2D03F0E563461F1ABC4592410124D0
:102B680043464D1B5242AD1A1C4011E7624644468B
:102B78000D00D708C8E66346C61886428041691822
:102B8800404209180B0200D40CE1634B700819404D
:102B9800CB0703434A08400700D43BE10F20184005
:102BA800042800D136E11F1D9F42AD416D4202232A
:102BB800AD18FF08A8E6002B00D140E64B469B1B4A
:102BC800002E00D150E7382B2EDD63465F1EBC4532
:102BD800924152428D1A44464E462B0200D5E3E5F7
:102BE80094E56346C71AB84280416D1A40422D1ACF
:102BF8002B0200D5C9E66A07FF0801233A43E80813
:102C080064E71A000F00203AD740B846202B05D0B9
:102C18004022D31A994063460B439A4657467B1E77
:102C28009F4143461F435CE680223C001204154343
:102C38001F2B26DC20222F00D21A06009040974036
:102C4800DE40421E9041DD4037430743491B63463F
:102C5800DF1BBC45924152424E468D1A7DE6002B41
:102C680000D1C1E64B469B1B002E00D1D0E5382B86
:102C780036DD80252D04294200D1DDE04E460027AF
:102C88002FE51A002E00203AD640202B05D04022EE
:102C9800D31A9D402F000743BB465F467B1E9F41CA
:102CA8003743D4E7002A00D1D1E6012443460D007A
:102CB800E3461C40B6E663461F1ABC4592414D1BCD
:102CC8005242AD1A2B0200D55EE66A07FF08444659
:102CD80001233A43E808F9E6471C17E53B00EBE512
:102CE8008022120415431F2B6CDC20222F00D21ADD
:102CF800060090409740DE40421E9041DD40374339
:102D08000743491967446745924152424E46551850
:102D1800ECE5C046FE070000FFFF7FFFFF0700004D
:102D2800002B00D1FCE6C7086B071F436346E80881
:102D38000B4300D11FE580231B03184207D0CA08A4
:102D48001A4204D163461000DF0849070F437B0F7E
:102D5800FF00FF085B071F430DE562460D00D7081B
:102D6800D2E5C7086B071F43E808002A00D102E52F
:102D780080231B031842EAD0CA081A42E7D16346E7
:102D88000124DF084346490710000F431C40DEE7D3
:102D980060446045924169185242891806000B0246
:102DA80000D5F2E64A07F60801233243C8088DE643
:102DB8006346DF084B0744461F43C808DBE4444624
:102DC800130035E71A002E00203AD640202B05D0F4
:102DD8004022D31A9D402F000743BB465F467B1E07
:102DE8009F4137438EE7202300271B1AF5E4002371
:102DF800002A00D192E567460D00FF0884E53A00F5
:102E08001A4300D123E61D00BB460BE6170033002A
:102E1800FF0879E5DB0852071A430809022355E63B
:102E280063460124DA0843464F071743C8081C4085
:102E3800A1E41E00471C69E467460D004E460137B1
:102E480064E40F4BFF081D406A076D0201233A43F3
:102E58002D0B71E4130046E73300FF0854E567467D
:102E68000D001E00013751E46A07FF083A430009C4
:102E78002CE6C0086A0702430023E80826E6C04695
:102E8800FFFF7FFFF0B5C6461E03360BB0460D4E5A
:102E98000C034D005F0000B5240B6D0D7F0DB5428E
:102EA8000BD0084900208F4204D146461643300013
:102EB800431E984180BCB846F0BD04430120002C55
:102EC800F8D1EEE7FF0700000B00020070B5164DC1
:102ED8000C0382B04900002000920193240B490D95
:102EE800DE0FA94204DD1148814203DD104BF018C2
:102EF80002B070BD8020400320430E4C641A1F2C82
:102F080008DD0D4B5B1AD84003005842002EEFD164
:102F18001800EDE7094B009A9C46030061448B407A
:102F2800E2401343F1E7C046FE0300001D04000021
:102F3800FFFFFF7F3304000013040000EDFBFFFFD9
:102F480070B5002816D0C317C5185D40C40F2800F7
:102F580000F052F9104B1B1A5B055B0D0A2814DCB4
:102F680002002E00153296400B22121AD5402D036E
:102F78002D0B03E000240023002500261B052B430E
:102F8800E40723433000190070BD0B3885402D033A
:102F980000262D0BF2E7C0461E04000010B5041EE3
:102FA80010D000F029F90E4B1B1A5B055B0D0A289F
:102FB8000FDC0B222100121AD14015300A0384407D
:102FC800120B01E0002300221B0513432000190007
:102FD80010BD22000B38824012030024120BF3E7C5
:102FE8001E04000070B542024300C40FFE201B0EF1
:102FF800591C550A08420CD0E02189008C466D07FF
:10300800120B63441B051343E407234328001900EC
:1030180070BD002B14D1002D1BD0280000F0ECF857
:103028000A281CDC0B232A001B1ADA40030015337C
:103038009D400E4B12031B1A5B05120B5B0DE1E75B
:10304800002D09D0130B802212031A436D07084B79
:10305800D8E700230022D5E70022054BD2E703007A
:103068002A000B3B9A400025E3E7C046890300008D
:10307800FF070000F0B54B000F035B0D3D4C450FFB
:1030880083B07F0A5E1C2F4300900191CA0FC500D0
:1030980026420BD038495C18FE2C12DDFF20002395
:1030A800C0051843D207104303B0F0BD00203D43CC
:1030B800002BF5D0002DF1D08023DB03FF203B430C
:1030C800EEE7002C0CDD009BFF009B01581E83419E
:1030D800690F3B430B43590725D1DB08E0B2DFE713
:1030E800210017312EDB80211E2009043943001BE3
:1030F8001F282ADD02267642341B0E00E6403400E3
:10310800202804D01D488446634499400D432B0071
:10311800591E8B4123430721180008400B421FD139
:103128009B015B0ABCE70F211940042903D19B01CD
:103138005B0AE0B2B4E704335901F8D5013400233F
:10314800E0B2ADE700200023AAE70D4C1C192B00C4
:10315800A540C340A140681E854129430B43DAE7D7
:103168000F21002419400429E5D19B0120005B0AA6
:1031780096E7C046FE07000080FCFFFFA2FCFFFFA9
:1031880082FCFFFF844608006146FFE71FB500F098
:10319800C1F8002801D40021C8421FBD10B500F0B5
:1031A80049F84042013010BD10B500F0B3F80028CE
:1031B80001DB002010BD012010BDC04610B500F095
:1031C800A9F8002801DD002010BD012010BDC0466F
:1031D80010B500F057F8002801DC002010BD0120D0
:1031E80010BDC04610B500F04DF8002801DA0020E7
:1031F80010BD012010BDC0461C2101231B049842AC
:1032080001D3000C10391B0A984201D3000A08396F
:103218001B09984201D30009043902A2105C401826
:103228007047C046040302020101010100000000CA
:103238000000000070B542004E024C0045026D0AC5
:10324800120EC30F760A240EC90FFF2A10D0FF2CC6
:103258000CD00120A2420AD1B54208D18B420FD02E
:10326800002A04D12800431E984100E0012070BDC7
:103278000120FF2CFBD13543F9D14B401800F6E76C
:103288000020F4E730B5420044024D02C30F480065
:10329800640A120E6D0A000EC90FFF2A18D0FF2803
:1032A8000AD0002A1ED100280AD1002D29D0002CCE
:1032B8002DD14800013830BD002D25D1002A01D17B
:1032C800002CF6D08B4219D001205B421843F2E75C
:1032D800002C19D1FF28F7D1002D15D100208B42E1
:1032E800F2D1E8E70028EFD08B42EDD18242EBDC47
:1032F80004DBAC42E8D80020AC42DCD258000138EC
:10330800D9E7002CD7D0DFE702204042D3E78B4231
:10331800DAD1EEE730B5420044024D02C30F48004F
:10332800640A120E6D0A000EC90FFF2A17D0FF2873
:103338000AD0002A1BD100280AD1002D1DD0002C4C
:103348002DD14800013811E0002D0ED1002A01D1FD
:10335800002CF6D08B420CD15800013806E0002C26
:1033680003D1FF2805D1002D15D0022030BD00283B
:1033780006D101205B421843F8E7002CF6D0F8E7A5
:103388008B42F6D18242F4DCE6DBAC42F1D8002075
:10339800AC42EBD2E0E700208B42EAD1E6E78B4271
:1033A800E7D1F2E710B5041E0ED0A02001220221B9
:1033B800C00504F0D5FB01240421074AA4001378B2
:1033C8008B432343137010BD0200A0200221C005C7
:1033D80004F0C6FBF0E7C046F802002070B5040010
:1033E8000020FFF7DFFF0122044D200004492C6074
:1033F8002A7107F039FC287170BDC046B40000205E
:10340800B90000200022054B0549DA84CA77190063
:10341800473328310A701A707047C046B40000203C
:10342800B900002010B5FFF7EDFF0020FFF7BAFF45
:1034380010BD00000A4B026810B59A420FD1094925
:10344800094CCB7F6079E21801339071CB77012268
:1034580000232068E384227107F006FC207110BD68
:1034680000440040B9000020B4000020084B026866
:1034780010B59A420BD11E220021064807F06DFCB8
:103488001E220021044807F068FCFFF7CBFF10BD9F
:1034980000440040BA000020DD000020F8B5194BB8
:1034A8000124187A08380100C2B22140204218D1FC
:1034B800052A16D9E2401D001C0008000E00277AD4
:1034C8000130C0B23E4302348242F8D1541C640039
:1034D80018198079B04206D01E2200210A4807F048
:1034E8003CFC00200CE000206E7A0130C0B2314371
:1034F80002358242F8D11B19DB7901208B42EBD1CE
:10350800F8BDC046B4000020BA000020F8B5050098
:10351800140081422AD9091A88B2FFF73FFD002218
:103528002F4BFEF7AFFD060028000F00FFF736FD12
:1035380002000B0030003900FEF762F90600200097
:103548000F00FFF72BFD02000B0030003900FEF7DB
:1035580099FD234B0022FEF753F9FCF7A3FF214BFB
:1035680024189C4200D91C002000F8BD8142FBD2DF
:10357800411A88B2FDF7E4FCFFF734FD0022184B2E
:10358800FEF780FD060028000F00FDF7D9FCFFF7C5
:1035980029FD02000B0030003900FEF731F9FFF772
:1035A80069FDFFF71FFD060020000F00FDF7C8FCAE
:1035B800FFF718FD02000B0030003900FEF762FD2E
:1035C800FCF770FFFFF7EAFC0022054BFEF718F93D
:1035D800FCF768FF844201DD241AC5E70024C3E72D
:1035E8000000594018FCE703642170B51A4B1B4CC6
:1035F8001A7C587C4A431B7B8018102B1FD00BD891
:10360800042B22D0082B1DD0022B21D002233834C2
:1036180022781343237070BD402B0DD0802B04D02B
:10362800202BF3D10E4D218901E00E4DA1882A6887
:10363800FFF76CFF2860E9E70B4DE188F7E70B4DD2
:103648006189F4E70A4DA189F1E70A4DE189EEE7BE
:10365800094D218AEBE7C046B4000020C0020020D3
:1036680090020020880200208C0200209402002092
:10367800980200209C020020A00200207F2270B542
:103688001C4B5B791A40102A06D04022190091433E
:10369800202901D0802B14D100221749174B086824
:1036A8004968FEF7EFFC0022154B04000D00FCF7FB
:1036B800D7FE002818D120002900FCF7F3FE80B2BD
:1036C80070BD302B04D0102219009143402903D13A
:1036D800002209490B4BE2E7702BDDD0A02B06D165
:1036E80000220549084BDAE700200549E5E70020F4
:1036F8000021E2E7D0010020D00500200000594059
:10370800C0FFEF4000408F400088C340F8B59F4C91
:10371800E57A102D30D19E4A637AE280182222720F
:10372800A27AE57262729B4AA37212789A4B22734C
:103738001A003D32117801220A4362731A003E32A0
:103748001278A2731A003F321278E2731A1DD28FD0
:1037580052BA22829A1DD28F52BA62821A00083255
:10376800D28F483352BA1B88A2825BBAE3828B4B52
:10377800A3618B4BA3834FE0202D00D076E0894BCB
:10378800854D1B78DB071CD5002000F091FA00203E
:1037980000F0A6FA002000F0BDFA002000F0D2FAEE
:1037A800002000F0E7FA002000F0FCFA002000F00A
:1037B80011FB002000F026FB002000F03DFB00F08C
:1037C800D5FC2A003C321378207B617A03431370BE
:1037D800627B2800072617003D300378B7433B4338
:1037E800037028003E300378A67B3F3533430370CF
:1037F8002B78E07B03432B70654BE3801023237207
:10380800A37AA17263722023E3721F3B134363738D
:10381800624B2361624BA382002220002500110025
:10382800237A083BDBB25B0802359A4200D09BE062
:103838005A1C5200A518A971002126000D00023655
:10384800994200D095E00023A218D5711D00217A75
:1038580001308B4200D091E0FFF7D4FD23002B33D9
:103868001A785149206806F0EDFAF8BD302D16D1C6
:10387800FFF704FF464A637AE28010222272A27A96
:10388800A3726272C822444B9200E5729B5C627B11
:103898002373012340BA13436373E081B8E7402DD3
:1038A80022D101233F4A657A11780B4313704123D3
:1038B800227B607B9A43374B010711D519780A435D
:1038C8001A70334BE38010232372A37AA5726372B4
:1038D8004023E3723F3B034363730023E38197E78D
:1038E800197891431970ECE7502D14D1667AFFF7D7
:1038F8007BFE274B627BE38012232372A37AE57257
:1039080063720123134363730023E3816382274BAC
:10391800A672636180E76A2D00D07DE71C4A637A4E
:10392800E28018222272A27AE5726272194AA372A0
:103938001278194B22731A003D32117801220A437A
:1039480062730022E2811A4A9A5A52BA2282C92222
:1039580092009A5A52BA6282164A9A5A52BAA28265
:10396800CA2292009B5A00E7AE790132D2B23143A3
:103978005AE7F77901313D43C9B260E70200467959
:10398800283201331670DBB2457161E7B4000020BC
:10399800AA99FFFFFC020020C0020020000099AA9B
:1039A8000D0A0000F8020020DD00002099AA0D0A87
:1039B800220300002603000010B5FFF76FFD002862
:1039C80008D0064A064B927A5B799A4202D1FFF7F1
:1039D8009DFE10BDFFF726FDFBE7C046B4000020A2
:1039E800D001002070B5394B394C1B78002B63D1BE
:1039F800A279631DDB7FAA2A58D1002B58D0E2791F
:103A0800992A50D1012B09D1E38CC72B5BD92834D3
:103A18002378002B4FD1FFF705FD4CE0217A4A1E91
:103A2800D0B21D283CD8022BEED06518AD78C81E40
:103A3800992D32D19842E7DC201880798D1EAA286A
:103A480028D19D42E0DC6519A8790D281FD19A423A
:103A5800DADCA21892790A2A10D19942D4D8230024
:103A6800A0202833093A0221C0051A7004F078F81A
:103A78000423184A11780B43137003E09942C3D802
:103A8800FFF7D0FC631DDB7F002BBDD110E09A420D
:103A9800BADCF5E79D42B7DCF2E79842B4DCEFE721
:103AA800022BB1D0ECE7012BAED0E9E7002BE7D130
:103AB800E38CC72BABD870BD220047321378042B98
:103AC800E0D80133D8E70133E384F1E7DC000020D4
:103AD800B4000020F802002010B50B4C2379002B0D
:103AE80005D001220949206807F0BEF8207123009B
:103AF80028331B78012B05D147342378042B01D9AF
:103B0800FFF75AFF10BDC046B4000020B9000020DE
:103B1800F7B50E001400050003F080FE02231248DA
:103B280001A90360DB1843601B3383601E3BC3603D
:103B3800002703F019FFB8420BD003F081FEFEBD49
:103B4800F31801201A685B6803F0B8FE002808D152
:103B58000137FB00E918BC42F2DC03F0E3FE002069
:103B6800EDE703F0DFFEE8E7FC000020030070B596
:103B78001C685D681E1A013A8E1992B2346075602D
:103B88000833002AF4D170BD0122802110B591407C
:103B9800044803F0E5FF0121034A13788B431370AF
:103BA80010BDC046000400500003002080210122FF
:103BB80010B58900044803F0D3FF0221034A1378A3
:103BC8008B43137010BDC046000400500003002052
:103BD8000122802110B5044803F0C2FF0421034AE2
:103BE80013788B43137010BD0004005000030020AD
:103BF8000122402110B5044803F0B2FF0821034A0E
:103C080013788B43137010BD00040050000300208C
:103C18000122202110B5044803F0A2FF1021034A15
:103C280013788B43137010BD00040050000300206C
:103C38000122102110B5044803F092FF2021034A05
:103C480013788B43137010BD00040050000300204C
:103C58000122082110B5044803F082FF4021034ADD
:103C680013788B43137010BD00040050000300202C
:103C78000122082110B5044803F072FF7F21034A8E
:103C880013780B40137010BD000C00500003002087
:103C98000122042110B5044803F062FF0121034A00
:103CA80053788B43537010BD000C00500003002064
:103CB80010B5041E02D0012803D010BDFFF764FF21
:103CC800FBE7802100220448490003F049FF034B29
:103CD8001A7814431C70F0E7000400500003002019
:103CE80010B5002802D0012803D010BDFFF75EFFF1
:103CF800FBE7802100228900044803F031FF0223FA
:103D0800034A11780B431370EFE7C04600040050D4
:103D18000003002010B5002802D0012803D010BDF0
:103D2800FFF756FFFBE700228021044803F018FF45
:103D38000423034A11780B431370F0E70004005082
:103D48000003002010B5002802D0012803D010BDC0
:103D5800FFF74EFFFBE700224021044803F000FF75
:103D68000823034A11780B431370F0E7000400504E
:103D78000003002010B5002802D0012803D010BD90
:103D8800FFF746FFFBE700222021044803F0E8FE86
:103D98001023034A11780B431370F0E70004005016
:103DA8000003002010B5002802D0012803D010BD60
:103DB800FFF73EFFFBE700221021044803F0D0FE86
:103DC8002023034A11780B431370F0E700040050D6
:103DD8000003002010B5002802D0012803D010BD30
:103DE800FFF736FFFBE700220821044803F0B8FE7E
:103DF8004023034A11780B431370F0E70004005086
:103E08000003002010B5002802D0012803D010BDFF
:103E1800FFF72EFFFBE700220821054803F0A0FE6C
:103E28008023044A5B4211780B431370EFE7C046C6
:103E3800000C00500003002010B5041E02D0012819
:103E480003D010BDFFF724FFFBE70022042104483C
:103E580003F086FE034B5A7814435C70F1E7C046C2
:103E6800000C005000030020F8B52D4D2D4C696A58
:103E78002A6AA069002905D1904203D90120FFF7D9
:103E8800C1FF0BE063699C46C318002907D1934220
:103E980005D9FFF7EDFE0120FFF79CFFF8BD0027CD
:103EA800E6699B198F4207D1934205D9FFF7D0FEE7
:103EB8000120FFF7C1FFF1E7C3188F4204D19342F5
:103EC80002D9FFF7E5FED9E763441F0000238B42C0
:103ED80001D19742DDD8F6198B4201D19642E5D837
:103EE8008019002901D19042EBD8FFF7D1FEFFF7E6
:103EF800AFFEFFF7BDFEC423002000219B00E3189E
:103F080018605960C82300229B00E2543D3423788E
:103F18007F3213402370002200232A626B62BDE7C0
:103F280010010020C002002030B52B4A2B4B12781C
:103F3800D20908D001240025294A106A516A0019BB
:103F48006941106251621A003C321278D20903D0DA
:103F580023490A6801320A601A003C321278520674
:103F680003D51F494A6801324A601A003C32127868
:103F7800920603D51A498A6801328A601A003C32CF
:103F88001278D20603D51649CA680132CA601A00E7
:103F98003C321278120703D511490A6901320A61C5
:103FA8001A003C321278520703D50D494A6901328A
:103FB8004A611A003C321278920703D508498A6987
:103FC80001328A613D331B785B0603D5044AD36905
:103FD8000133D36130BDC046FD020020C00200207D
:103FE8001001002010B50A4B0A4C1B6822689A423F
:103FF80003D20120FFF75CFE10BDFFF7C5FD0023CB
:104008007F21054A236013780B401370F4E7C046FC
:104018008802002010010020FC02002010B50A4B85
:104028000A4C1B6862689A4203D20120FFF740FEDF
:1040380010BDFFF7A9FD00234021054A63601378EE
:104048008B431370F4E7C0468C0200201001002057
:10405800FC02002010B50A4B0A4C1B68A2689A4261
:1040680003D20120FFF73CFE10BDFFF79FFD0023A0
:104078002021054AA36013788B431370F4E7C046E8
:104088009002002010010020FC02002010B50A4B0D
:104098000A4C1B68E2689A4203D20120FFF73AFEF5
:1040A80010BDFFF795FD00231021054AE360137842
:1040B8008B431370F4E7C0469402002010010020DF
:1040C800FC02002010B50A4B0A4C1B6822699A4270
:1040D80003D20120FFF736FE10BDFFF789FD00234C
:1040E8000821054A236113788B431370F4E7C0460F
:1040F8009802002010010020FC02002010B50A4B95
:104108000A4C1B6862699A4203D20120FFF732FE0B
:1041180010BDFFF77DFD00230421054A6361137874
:104128008B431370F4E7C0469C0200201001002066
:10413800FC02002010B50A4B0A4C1B68A2699A427F
:1041480003D20120FFF72EFE10BDFFF771FD0023FB
:104158000221054AA36113788B431370F4E7C04624
:10416800A002002010010020FC02002000200021F5
:104178000022084B1862596201211A605A609A603D
:10418800DA601A615A619A61DA61034A13788B43DB
:104198001370704710010020F802002070B5154D0B
:1041A800154CEA69E3699A4203D20120FFF744FEFD
:1041B80070BDA1695B189A4205D2FFF769FD01201D
:1041C800FFF720FEF4E7FFF753FDFFF761FDC42377
:1041D800002000219B00E318C822186059600023C2
:1041E8009200A35440223D34EB612378934323701B
:1041F800DEE7C04610010020C00200204B4B10B57E
:104208004B4C1A78012023003C3302423CD11B78E6
:10421800DB0901D0FFF7E6FE23003C331B785B0681
:1042280001D5FFF7FBFE23003C331B789B0601D525
:10423800FFF710FF23003C331B78DB0601D5FFF79F
:1042480025FF23003C331B781B0701D5FFF73AFFF6
:1042580023003C331B785B0701D5FFF74FFF230092
:104268003C331B789B0701D5FFF764FF23003D33E0
:104278001B78DB0901D0FFF7F7FD3D3423785B0697
:1042880001D5FFF78BFF10BD1A78D2092AD0FFF7A6
:104298000FFD23003C331A78920629D50120FFF739
:1042A8001FFD23003C331A78D20627D50120FFF7DB
:1042B80031FD23003C331A78120725D50120FFF77A
:1042C80041FD23003C331A78520723D50120FFF71C
:1042D80051FD23003C331A78920721D50120FFF7BE
:1042E80061FDC3E71B78DB09D3D1FFF74DFCD0E7AD
:1042F8001B789B06D5D4FFF759FCD2E71B78DB0661
:10430800D7D4FFF765FCD4E71B781B07D9D4FFF790
:104318006FFCD6E71B785B07DBD4FFF779FCD8E79F
:104328001B789B07A2D4FFF783FC9FE7F8020020C5
:10433800C002002010B5074C0821206005F050FC91
:104348000421206805F04CFC0021206805F048FC99
:1043580010BDC04638010020002803D1144B1B684B
:104368001B68D863002903D1114B1B681B6899632C
:10437800002A03D10E4B1B681B685A63002805D01E
:104388000B4B80001B6801381B68D863002905D0D7
:10439800074B89001B6801391B689963002A05D0FF
:1043A800034B92001B68013A1B685A637047C0466A
:1043B80038010020034B044A1A62044A5A62002258
:1043C8001A8570473C0100200300FF0000FFFF0F23
:1043D80070B5802300250C4C0C4E29009B02A06070
:1043E8001422300023602571203606F0B6FC29001F
:1043F8000A22074806F0B1FC35706585E585256316
:104408006563A563E56370BD3C0100204801002099
:104418005C01002070B5812300250B4E0B4C290050
:104428005B041422300023602571203606F095FCC9
:1044380029000A22064806F090FC35706585E58556
:104448002563656370BDC046480100203C0100201B
:104458005C010020AF210A4A10B5138889008B42FD
:1044680004D2013313800023D38510BDD38D0133CB
:104478009BB2D3858B42F8D3FFF7CCFFF5E7C04654
:104488003C010020094B02689A420AD10849094AAE
:104498000B780133DBB2092B04D80B7000232C32C4
:1044A80013707047002353851371F7E700540040D9
:1044B800660100203C010020454B0268D0B59A42B5
:1044C80000D084E0434A444C13780133DBB21370C4
:1044D800132B00D878E0E08FFCF732FDFEF782FD61
:1044E8003E4A3F4BFDF7CEFD0600208B0F00FCF740
:1044F800D7FCFEF777FD3B4A3B4BFDF7C3FD0200B7
:104508000B0030003900FCF761FDFBF7CBFFE087BB
:10451800208FFCF715FDFEF765FD304A304BFDF79F
:10452800B1FD0600608B0F00FCF7BAFCFEF75AFDE0
:104538002C4A2D4BFDF7A6FD02000B003000390078
:10454800FCF744FDFBF7AEFF2087608FFCF7F8FC13
:10455800FEF748FD214A224BFDF794FD0600A08B8B
:104568000F00FCF79DFCFEF73DFD1E4A1E4BFDF7B4
:1045780089FD02000B0030003900FCF727FDFBF72E
:1045880091FF6087A08FFCF7DBFCFEF72BFD134A39
:10459800134BFDF777FD0600E08B0F00FCF780FC5E
:1045A800FEF720FD0F4A104BFDF76CFD0B000200D3
:1045B80039003000FCF70AFDFBF774FF0023238065
:1045C80063850133A087237100232C342370D0BD69
:1045D80000540040660100203C01002066666666C3
:1045E8006666E63F333333333333D33F37B501257C
:1045F80080210A4B0A4A1B780A4CD25C0C331B19DF
:10460800019500930A432B00A0682E3903F0F8FBAC
:1046180023002B342C331D70257037BD6601002014
:104628005CB600083C010020254B1A8BD878DA8646
:104638005A8B1A869A8B5A86DA8B9A8601283DD12C
:104648005A1C197BD27F914237D19A1C597BD27F51
:10465800914232D1DA1C997BD27F91422DD11A1D19
:10466800D97BD27F914228D15A1D197CD27F9142A1
:1046780023D19A1D597CD27F91421ED1DA1D997C93
:10468800D27F914219D11A000832D97CD27F914247
:1046980013D11A002832197D127891420DD11A00CF
:1046A8002932597D1278914207D19B7D0020442BF5
:1046B80003D04D3B5A1E9341D8B270470020FCE707
:1046C8003C01002010B5084CA378022B04D1013B13
:1046D800E370FFF76FFE02E0E378012BF9D0FFF7F4
:1046E800A3FFA07010BDC0463C010020AF2337B522
:1046F8002D4C9B0022889A4204D323002A331B782E
:10470800002B04D023002B331B78012B07D1230067
:104718002C331B782279134301D1FFF767FFFFF78A
:10472800D1FFA278012A04D123002A331B78002B59
:1047380004D023002B331B78022B31D125002C35D4
:104748002B78002B16D12379012B13D1220080203E
:104758002A321178154A0193525C20316118009170
:1047680002435221A06803F0E5FA02232B342B7090
:10477800237037BD002A04D123002A331B78002B6D
:1047880004D023002B331B78022BF2D123002C33C7
:104798001B78002BEDD12279012AEAD12371E8E7B1
:1047A800002AE9D0E5E7C0463C0100205CB60008D5
:1047B800024B9878434258417047C0463C0100205C
:1047C80030B5054C258F0580608F0880A18F11803A
:1047D800E28F1A8030BDC0463C01002010B5C34BA3
:1047E800C34C5B79602B00D1B4E100D97AE0302B5F
:1047F80000D121E124D8102B00D1D7E0202B00D103
:1048080016E1BC4B58226382BB4BBC496361BC4B6D
:10481800BC48A361BC4BE361FA232362A36206F0A0
:10482800CFFA5822B949BA4806F0CAFA04223D34E8
:1048380023789343237023787B321340237010BD71
:10484800402B00D14DE1502BDBD1FA23DB00636014
:10485800C823A3600023E3602382013B2380A37065
:104868002300AC4AFA331A808E23002100209B00D3
:10487800E31818605960902300229B00E118A64BAA
:104888000A604B609221890061180A604B6094238A
:104898009B00E11880230022DB050A604B6096210B
:1048A800890061180A604B60982300229B00E11878
:1048B8009A4B0A604B609A21890061180A604B6024
:1048C8009C2300229B00E118954B0A604B609E21B7
:1048D800890061180A604B60A0239B00E118002240
:1048E800904B87E1902B00D1C5E156D8702B00D1B1
:1048F80088E1802B00D084E7FA239B0063608A4B11
:10490800844AA3606423E360DC23FF332382DD3B16
:10491800FF3B2380A3702300FA331A808E230020E4
:1049280000219B00E3181860596090237F48804954
:104938009B00E3181860596092237E497B489B00CE
:10494800E3181860596094239B00784AE1187A4B61
:104958000A604B609621890061180A604B609823B1
:104968009B00764AE118764B0A604B609A218900D1
:1049780061180A604B609C239B006C4AE118714BDC
:104988000A604B609E21890061180A604B60A02371
:104998009B00E1180022604B2CE1A02B02D0FF2BDA
:1049A80000D02EE7FA239B00636003E0FA23DB00C4
:1049B8006360C823A3600023E3602382013B238054
:1049C800A3702300534AFA331A808E239B000022D7
:1049D800E11800230A604B609021890061180A6081
:1049E8004B609221890061180A604B60942189000C
:1049F80061180A604B609621890061180A604B6053
:104A08009821890061180A604B609A218900611811
:104A18000A604B609C21890061180A604B609E21E6
:104A2800890061180A604B60A02189006118E1E0E3
:104A3800C8236360444BBDE796235B006360963BE5
:104A4800A3600023E3602382013B2380A37023003B
:104A5800304AFA331A808E23002000219B00E31885
:104A68001860596090239B00304AE118304B0020B1
:104A78000A604B609221890061180A604B60942398
:104A88009B002A4AE1182B4B0A604B60962189004B
:104A980061180A604B6098239B00244AE118264B52
:104AA8000A604B609A21890061180A604B609C2358
:104AB80000229B00E118184B0A604B609E21890078
:104AC80061180A604B60A02320499B00E318186016
:104AD8005960A223002012499B00E318186059600E
:104AE8008FE6FA23DB006360194B63E7D0010020EF
:104AF800C00200201405000090650000D6010020C7
:104B0800D8D600000A030020102700002E0200203B
:104B180062030020010200000000F03F0000104086
:104B280000002440000034401900C8009A9999995F
:104B38009999B93F9999C93F9999D93F33333333F3
:104B48003333E33F9999E93FC800C8000000144097
:104B5800C8002C01704B802263601E23A3600023D1
:104B6800E36078332382793B2380A370230092008B
:104B7800FA331A808E23002000219B00E318186066
:104B88005960902300229B00E118644B00200A60C2
:104B98004B609221890061180A604B609423604938
:104BA8009B00E31818605960962300205D499B001C
:104BB800E31818605960982300205B499B00E318AC
:104BC800186059609A23002058499B00E318186020
:104BD80059609C2300229B00E118554B0A604B60EA
:104BE8009E21890061180A604B60A02300229B0067
:104BF800E118504B0A604B60A221890061180A60D5
:104C08004B60FEE54C4B4D4A63604D4B0020A36062
:104C18006423E360A533FF33238201235B422380AF
:104C2800A3702300FA331A808E2300219B00E31817
:104C3800186059609023802100209B00E318C90563
:104C480018605960922300203E499B00E3181860C1
:104C58005960942300229B00E1183B4B0A604B608B
:104C68009621890061180A604B6098239B00E1181F
:104C78000022364B1DE6FA239B006360344B2F4A13
:104C8800A3600023E36091239B00238201235B42FE
:104C98002380A3702300FA331A808E23002100207A
:104CA8009B00E3181860596090239B00E11880234B
:104CB8000022DB050A604B609221890061180A60B6
:104CC8004B60942300229B00E1181E4B0A604B6046
:104CD8009621890061180A604B60982300229B0086
:104CE800E118194B0A604B609A21890061180A6023
:104CF8004B609C2300229B00E118144B0A604B6018
:104D08009E21890061180A604B60A0239B00E1186E
:104D18000022044B6EE7C046DC0500000000F03FAF
:104D280000001440000024400000344000003E40D1
:104D38000000444000004940F40164000102000002
:104D480064003700000010400000184000002040B8
:104D580064006400F0B5C04B5A79602A00D109E1BB
:104D680000D97FE0302A07D01021302A76D8103AAF
:104D78008A43D2B2002A74D1B84CB948DC61B94C24
:104D880058615C639C1DA4466746B74CB748FC87CE
:104D98005E27BC469C446746B54998611862186707
:104DA8009867B4481961B449D867181DC1671800D5
:104DB800B24E0830DE803E80B14E99621E66B14E1A
:104DC80019635E66AA4EAE4A9E66A54E9A60DE6676
:104DD800A24EAC4A5E67AC4EDA60C6671E008836E3
:104DE800316019009F4E8C310E601900A64A90312F
:104DF800DA62A64A9F4D0A6019005D62A44D94319B
:104E08000D6019001F0098319A63DD631A640A6007
:104E1800A0495C3739801F009F4E1A009E37C6870D
:104E28003E801E009C3214809C4AA03632601E00D0
:104E38009B4DA436DD6435601D00A8359A641A655B
:104E48002A601A00974CAC3214601A0096485C65C8
:104E58009865B032B4331060198002E08A43402A62
:104E68008AD0F0BD902A00D115E27CD8702A00D1F2
:104E780098E1802AF5D18D4A8D49DA808D4A5962A8
:104E88009A608D4A8D49DA608D4A59631A618D4A54
:104E98008D495A618D4A8E4C9A618E4A8E4DDA61DF
:104EA8008E4A8F481A629A628E4A1864DA628E4A6B
:104EB8001A639A638D4ADA639A1DD18719005E31A5
:104EC8000C808B498B4C19668B49DC6759668B497A
:104ED8001C1D99668A490232D9668A4919678A4926
:104EE80059678A49E1671C00996789498834D167FD
:104EF800884921601C008C3425601C009034216096
:104F08001900854C94310C601C0084499834216048
:104F18001C00834D9C342580824C9864D487824A37
:104F28008248DA64824A58651A659A651A00814887
:104F38005C3210801A0080489E3210801A00A0321D
:104F480011601A007D49A432116019007C4AA83109
:104F58000A6019007B48AC3108601900B0310A605A
:104F6800B433794A95E1A02A00D105E7FF2A00D198
:104F780002E776E77548764E186198619866186773
:104F88007448754A9E601E66734E724C5867734823
:104F9800DA605E66724A734EDC619867724C7048DC
:104FA8005A62DE66714A724EDC62D867714C181D0F
:104FB800C6675A636C489A1DD4870232D0671800B6
:104FC80068496D4E59616A498830066099621800CF
:104FD8006A49664E8C466A4F6A4C8C3006601800E7
:104FE800278064469030046018005C4D99631D6208
:104FF800614D65491D63654D9430DF80DD6319643B
:10500800056018009830016018001F00594C604E68
:105018009C3004805F4D604CD687604A6048996434
:10502800DD641A655C659A655C3738801F009E37B9
:105038003E801E00A03631601900A4310D601900B1
:10504800A8310A601900AC310C601900B433B031D2
:105058000A60188005E7C046D001002001A4B036D8
:1050680054B6B0362684141F146D0000612F8136A3
:105078001F341E3B01A4B728F2263C2E5E470000D1
:10508800BA38933F5DC8023F2684B728AD20F6277B
:10509800146D141F50490000B3160000BF1AE12117
:1050A800D957B316D95749119916851DDC40000008
:1050B8007D828A28663C08487EB9933A006C4B1F6B
:1050C8006838C843DCABE533BB590000E7333B3FE6
:1050D80049410000E29C8A2800700F20D52B5C36DD
:1050E800EA1E4F287D824B1FC324BA2E006C251858
:1050F800D23C54491F88032A2ABB9E3B8939ED4577
:105108009BAF4035633582419BA1032AB32D4539B6
:105118001F880F2026260C310070E2186520AF2A60
:10512800E25D000025180000BB59A4118148A411B4
:105138005019182281480000E2180000E25D73133C
:10514800BC1B7125754F7313754F0000C248CD50B5
:105158004B4AA2523BCC67423AD00E4981415C4847
:1051680062B8513C3BCC0E4986A7E332558B942B51
:105178006F3B7141F86500002F319C359C29042D47
:10518800324A00002E0200209F2369264C76F4251F
:10519800F4250000F8659C1F1D549C1F5F1D5D1FB2
:1051A8001D540000684A6949DA80694A59629A6060
:1051B800684A6949DA60694A59631A61684A6949FB
:1051C8005A61694A694C9A61694A6A4DDA616A4A60
:1051D8006A481A629A626A4A1864DA62694A1A6301
:1051E8009A63694ADA639A1DD18719005E310C8087
:1051F8006649674C196667495C67596666491C1DAC
:10520800996666490232D966654919679967654999
:10521800D9676549E167654CD4671C00883421600B
:105228001900634C8C310C601C0062499034216079
:105238001C00943425601C009834216019005E4CD1
:105248009C310C805D499864D1875D4A5D49DA6478
:105258005D4A59651A659A651A005C495C32118085
:105268001A005B499E32118019005A4AA0310A601F
:1052780019005948A43108601900A8310A601A00B9
:105288005649AC3211601A005549B0321160554A7E
:10529800B4331A80E5E5544D544E1D619D619D66F9
:1052A8001D67534D534A524C5E625D67524E4F4DD7
:1052B8009A60DC61514A524CB446DE63DD67514E58
:1052C8001D1DEC671C629C62DA629C679A1D4B4C40
:1052D800D6870232D4671C004B48883458614B4843
:1052E8004B4D20601C008C3425601C0090342060DD
:1052F8001863986318006446464F474E47493780FD
:10530800DF803C4FD9601F664149444F59635F664F
:1053180043493D4F9430DF661964046018009830A3
:10532800016018001F00374C3E4E9C3004803E4DF3
:105338003E4CD6873E4A3F489964DD641A655C65F1
:105348009A655C3771E6C046354C0000E98A9230B0
:10535800DA4C5952BFD739483475E628E8481D4E0B
:10536800BBCC1F3A2E6700002C3B4D3F5E47000028
:10537800BFA59230146D141FA931F634F1243127DA
:10538800E98AE628EF299A2C3475FB23BA38933F2B
:1053980001A4B0365DC8023F1F341E3B54B6B03678
:1053A800612F813601A4B728F2263C2E2684B7281F
:1053B8002684141FAD20F627146D0000FB2300007F
:1053C8002E67E214263CE2149E15C016263C000007
:1053D800B3160000BF1AE121D957B316D95749119E
:1053E8009916851D50490000E2343E32BC89E53EDD
:1053F800589EE53E2A41F6438879A039BC89F33B9B
:10540800DE2B61266D6D0000589EBA3F1C25F31EE9
:105418008879F33BB14200002E02002083BDBA3FD9
:1054280007209D19A03900006D6DE6320758E63255
:10543800C7171C120758000070B5012588B0142240
:10544800002103A805F089FC0221FE261A4BB600AC
:105458005A6B1A482A435A635A6B00242A4000920E
:10546800009A5A6B0A435A635A6B0A400192019A8E
:105478005A6B06310A435A635B6B00220B40029356
:105488000431029B02F06CFB002231000C4802F050
:1054980067FB0C2303A90948039304950594069414
:1054A80002F0ACFA064803A90396049505940694FD
:1054B80002F0A4FA08B070BD00100240000C0050C1
:1054C8000004005010B5134B134C01222360134BFA
:1054D800200063600023E260A36023616361A3612D
:1054E800E361236202F0C8FB002801D001F0E4FE6A
:1054F8000021200003F0E6FA002801D001F0DCFECC
:105508000021200003F004FB002801D001F0D4FEA4
:1055180010BDC046005400407C010020583D50009A
:1055280030B504008FB01422002103A805F015FC43
:105538001822002108A805F010FC1C4B22689A428A
:1055480031D1202308A8089303F050FE002801D089
:1055580001F0B2FE0122164CA020636B0025134314
:105568006363636B03A913400193019BC023DB00B2
:1055780003931223C00504930C3B079305950695E6
:1055880002F03CFA8022E36B92031343E363E36B7C
:105598001720134002932A002900029B02F076F894
:1055A800172002F09DF80FB030BDC04600540040EF
:1055B8000010024010B592B03422002105A801ACB9
:1055C80005F0CBFB00211022200005F0C6FB80204F
:1055D800800003F0C1FA02230593FE3340220893AA
:1055E800002305A809930A920C9303F0E1FA011E1F
:1055F80001D072B6FEE707236060A060E06020007B
:10560800019303F035FD002801D072B6FEE712B011
:1056180010BD0000F0B5CD4B8BB01E7805007300AF
:10562800185ACB4C0793FDF7B9FC23000090019161
:10563800FA331F7820367B00585B0493FDF7AEFCE5
:1056480020377F00E719029003917888FDF7A6FCC0
:10565800009A019BFCF716FD7600A619089009919F
:105668007088FDF79BFC029A039BFCF70BFD0B006F
:10567800020008980999FCF7C3F805F0ABFBC023B2
:105688009B00E418049B0600EB180F000493079B8B
:1056980026606760EB1800250793049B585BFDF7AD
:1056A8007DFC009A019BFCF7EDFC079B0890099193
:1056B800585BFDF773FC029A039BFCF7E3FC0B00B5
:1056C800020008980999FCF79BF805F083FBAA23C8
:1056D8009F4C9B00EB181B19083518605960582D12
:1056E800DBD1AA239B00E31830001A685B683900F5
:1056F800FAF7B6FE00280CD0C423002000219B0036
:10570800E31818605960C82301229B00E2540BB0CB
:10571800F0BDAC239B00E3181A685B6830003900C1
:1057280000920193FAF79CFE002812D0C4239B0034
:1057380030003900E518009A019BFCF761F80B006E
:105748008449020008684968FCF79CFC2860696085
:10575800D9E7AE239B00E3181A685B68300039006C
:1057680002920393FAF77CFE002833D090239B0023
:10577800E3181A685B6804920593C4239B00300001
:105788003900E518009A019BFCF744FF009A019B39
:1057980006000F0002980399FCF73CFF02000B007B
:1057A80030003900FCF72CF892239B000F00E11819
:1057B8000600049A059B08684968FCF72BFF02005D
:1057C8000B0030003900FCF75DFC049A059BFBF7E1
:1057D800FDFBBBE7B0239B00E3181A685B68300049
:1057E800390000920193FAF73BFE002838D0922343
:1057F8009B00E3181A685B6804920593C4239B0016
:1058080030003900E518029A039BFCF703FF029A5F
:10581800039B06000F0000980199FCF7FBFE0B00A4
:10582800020039003000FBF7EBFF942306000F005D
:105838009B00E11808684968049A059BFCF7EAFE92
:1058480002000B0030003900FCF71CFC049A059B91
:10585800FBF7BCFBC8230222286069609B0055E760
:10586800B2239B00E3181A685B6830003900029283
:105878000393FAF7F5FD002821D094239B00E31841
:105888001A685B6804920593C4239B0030003900B2
:10589800E518009A019BFCF7BDFE009A019B0600E3
:1058A8000F0002980399FCF7B5FE0B0002003900BF
:1058B8003000FBF7A5FF962306000F00B8E7B423D6
:1058C8009B00E3181A685B68300039000092019366
:1058D800FAF7C6FD00283FD096239B00E3181A6804
:1058E8005B6804920593C4239B0030003900E518D7
:1058F800029A039BFCF78EFE029A039B06000F0098
:1059080000980199FCF786FE0B0002003900300070
:10591800FBF776FF982306000F009B00E118086844
:105928004968049A059BFCF775FE02000B003000DD
:105938003900FCF7A7FB049A059BFBF747FBC82334
:105948000322286069609B00E0E6C046BB03002094
:10595800C002002000050020B6239B00E3181A6847
:105968005B683000390002920393FAF779FD00284A
:1059780021D098239B00E3181A685B68049205936A
:10598800C4239B0030003900E518009A019BFCF7FE
:1059980041FE009A019B06000F0002980399FCF74C
:1059A80039FE0B00020039003000FBF729FF9A236B
:1059B80006000F00B1E7B8239B00E3181A685B687C
:1059C8003000390000920193FAF74AFD002838D0D8
:1059D8009A239B00E3181A685B6804920593C42312
:1059E8009B0030003900E518029A039BFCF712FE71
:1059F800029A039B06000F0000980199FCF70AFE23
:105A08000B00020039003000FBF7FAFE9C23060069
:105A18000F009B00E11808684968049A059BFCF789
:105A2800F9FD02000B0030003900FCF72BFB049A4B
:105A3800059BFBF7CBFAC8230422286069609B000A
:105A480064E6BA239B00E3181A685B6830003900E3
:105A580002920393FAF704FD002821D09C239B00AF
:105A6800E3181A685B6804920593C4239B0030000E
:105A78003900E518009A019BFCF7CCFD009A019BC0
:105A880006000F0002980399FCF7C4FD0B00020002
:105A980039003000FBF7B4FE9E2306000F00B8E77C
:105AA800BC239B00E3181A685B6830003900009239
:105AB8000193FAF7D5FC002838D09E239B00E31801
:105AC8001A685B6804920593C4239B003000390070
